{
  "contractName": "ZombieFactory",
  "abi": [
    {
      "anonymous": false,
      "inputs": [
        {
          "indexed": false,
          "internalType": "uint256",
          "name": "zombieId",
          "type": "uint256"
        },
        {
          "indexed": false,
          "internalType": "string",
          "name": "name",
          "type": "string"
        },
        {
          "indexed": false,
          "internalType": "uint256",
          "name": "dna",
          "type": "uint256"
        }
      ],
      "name": "NewZombie",
      "type": "event"
    },
    {
      "anonymous": false,
      "inputs": [
        {
          "indexed": true,
          "internalType": "address",
          "name": "previousOwner",
          "type": "address"
        },
        {
          "indexed": true,
          "internalType": "address",
          "name": "newOwner",
          "type": "address"
        }
      ],
      "name": "OwnershipTransferred",
      "type": "event"
    },
    {
      "inputs": [],
      "name": "owner",
      "outputs": [
        {
          "internalType": "address",
          "name": "",
          "type": "address"
        }
      ],
      "stateMutability": "view",
      "type": "function"
    },
    {
      "inputs": [],
      "name": "renounceOwnership",
      "outputs": [],
      "stateMutability": "nonpayable",
      "type": "function"
    },
    {
      "inputs": [
        {
          "internalType": "address",
          "name": "newOwner",
          "type": "address"
        }
      ],
      "name": "transferOwnership",
      "outputs": [],
      "stateMutability": "nonpayable",
      "type": "function"
    },
    {
      "inputs": [
        {
          "internalType": "uint256",
          "name": "",
          "type": "uint256"
        }
      ],
      "name": "zombieToOwner",
      "outputs": [
        {
          "internalType": "address",
          "name": "",
          "type": "address"
        }
      ],
      "stateMutability": "view",
      "type": "function"
    },
    {
      "inputs": [
        {
          "internalType": "uint256",
          "name": "",
          "type": "uint256"
        }
      ],
      "name": "zombies",
      "outputs": [
        {
          "internalType": "string",
          "name": "name",
          "type": "string"
        },
        {
          "internalType": "uint256",
          "name": "dna",
          "type": "uint256"
        },
        {
          "internalType": "uint32",
          "name": "level",
          "type": "uint32"
        },
        {
          "internalType": "uint32",
          "name": "readyTime",
          "type": "uint32"
        },
        {
          "internalType": "uint16",
          "name": "winCount",
          "type": "uint16"
        },
        {
          "internalType": "uint16",
          "name": "lossCount",
          "type": "uint16"
        }
      ],
      "stateMutability": "view",
      "type": "function"
    },
    {
      "inputs": [
        {
          "internalType": "string",
          "name": "_name",
          "type": "string"
        }
      ],
      "name": "createRandomZombie",
      "outputs": [],
      "stateMutability": "nonpayable",
      "type": "function"
    }
  ],
  "bytecode": "0x60806040526010600155600154600a6200001a91906200017f565b600255620151806003553480156200003157600080fd5b5062000052620000466200005860201b60201c565b6200006060201b60201c565b62000302565b600033905090565b60008060009054906101000a900473ffffffffffffffffffffffffffffffffffffffff169050816000806101000a81548173ffffffffffffffffffffffffffffffffffffffff021916908373ffffffffffffffffffffffffffffffffffffffff1602179055508173ffffffffffffffffffffffffffffffffffffffff168173ffffffffffffffffffffffffffffffffffffffff167f8be0079c531659141344cd1fd0a4f28419497f9722a3daafe3b4186f6b6457e060405160405180910390a35050565b6000808291508390505b600185111562000176578086048111156200014e576200014d620002c6565b5b60018516156200015e5780820291505b80810290506200016e85620002f5565b94506200012e565b94509492505050565b60006200018c82620002bc565b91506200019983620002bc565b9250620001c87fffffffffffffffffffffffffffffffffffffffffffffffffffffffffffffffff8484620001d0565b905092915050565b600082620001e25760019050620002b5565b81620001f25760009050620002b5565b81600181146200020b576002811462000216576200024c565b6001915050620002b5565b60ff8411156200022b576200022a620002c6565b5b8360020a915084821115620002455762000244620002c6565b5b50620002b5565b5060208310610133831016604e8410600b8410161715620002865782820a90508381111562000280576200027f620002c6565b5b620002b5565b62000295848484600162000124565b92509050818404811115620002af57620002ae620002c6565b5b81810290505b9392505050565b6000819050919050565b7f4e487b7100000000000000000000000000000000000000000000000000000000600052601160045260246000fd5b60008160011c9050919050565b610e2380620003126000396000f3fe608060405234801561001057600080fd5b50600436106100625760003560e01c80632052465e14610067578063528b7b8f1461009c578063715018a6146100cc5780637bff0a01146100d65780638da5cb5b146100f2578063f2fde38b14610110575b600080fd5b610081600480360381019061007c91906107fe565b61012c565b60405161009396959493929190610949565b60405180910390f35b6100b660048036038101906100b191906107fe565b61023c565b6040516100c3919061092e565b60405180910390f35b6100d461026f565b005b6100f060048036038101906100eb91906107b5565b6102f7565b005b6100fa610378565b604051610107919061092e565b60405180910390f35b61012a60048036038101906101259190610788565b6103a1565b005b6004818154811061013c57600080fd5b906000526020600020906003020160009150905080600001805461015f90610bd2565b80601f016020809104026020016040519081016040528092919081815260200182805461018b90610bd2565b80156101d85780601f106101ad576101008083540402835291602001916101d8565b820191906000526020600020905b8154815290600101906020018083116101bb57829003601f168201915b5050505050908060010154908060020160009054906101000a900463ffffffff16908060020160049054906101000a900463ffffffff16908060020160089054906101000a900461ffff169080600201600a9054906101000a900461ffff16905086565b60056020528060005260406000206000915054906101000a900473ffffffffffffffffffffffffffffffffffffffff1681565b610277610499565b73ffffffffffffffffffffffffffffffffffffffff16610295610378565b73ffffffffffffffffffffffffffffffffffffffff16146102eb576040517f08c379a00000000000000000000000000000000000000000000000000000000081526004016102e2906109d1565b60405180910390fd5b6102f560006104a1565b565b6000600660003373ffffffffffffffffffffffffffffffffffffffff1673ffffffffffffffffffffffffffffffffffffffff168152602001908152602001600020541461034357600080fd5b600061034e82610565565b905060648161035d9190610c35565b816103689190610b02565b905061037482826105aa565b5050565b60008060009054906101000a900473ffffffffffffffffffffffffffffffffffffffff16905090565b6103a9610499565b73ffffffffffffffffffffffffffffffffffffffff166103c7610378565b73ffffffffffffffffffffffffffffffffffffffff161461041d576040517f08c379a0000000000000000000000000000000000000000000000000000000008152600401610414906109d1565b60405180910390fd5b600073ffffffffffffffffffffffffffffffffffffffff168173ffffffffffffffffffffffffffffffffffffffff16141561048d576040517f08c379a0000000000000000000000000000000000000000000000000000000008152600401610484906109b1565b60405180910390fd5b610496816104a1565b50565b600033905090565b60008060009054906101000a900473ffffffffffffffffffffffffffffffffffffffff169050816000806101000a81548173ffffffffffffffffffffffffffffffffffffffff021916908373ffffffffffffffffffffffffffffffffffffffff1602179055508173ffffffffffffffffffffffffffffffffffffffff168173ffffffffffffffffffffffffffffffffffffffff167f8be0079c531659141344cd1fd0a4f28419497f9722a3daafe3b4186f6b6457e060405160405180910390a35050565b600080826040516020016105799190610917565b6040516020818303038152906040528051906020012060001c9050600254816105a29190610c35565b915050919050565b600060019050336005600083815260200190815260200160002060006101000a81548173ffffffffffffffffffffffffffffffffffffffff021916908373ffffffffffffffffffffffffffffffffffffffff1602179055506106556001600660003373ffffffffffffffffffffffffffffffffffffffff1673ffffffffffffffffffffffffffffffffffffffff168152602001908152602001600020546106d890919063ffffffff16565b600660003373ffffffffffffffffffffffffffffffffffffffff1673ffffffffffffffffffffffffffffffffffffffff168152602001908152602001600020819055507f88f026aacbbecc90c18411df4b1185fd8d9be2470f1962f192bf84a27d0704b78184846040516106cb939291906109f1565b60405180910390a1505050565b600081836106e69190610aac565b905092915050565b60006107016106fc84610a54565b610a2f565b90508281526020810184848401111561071d5761071c610d27565b5b610728848285610b90565b509392505050565b60008135905061073f81610dbf565b92915050565b600082601f83011261075a57610759610d22565b5b813561076a8482602086016106ee565b91505092915050565b60008135905061078281610dd6565b92915050565b60006020828403121561079e5761079d610d31565b5b60006107ac84828501610730565b91505092915050565b6000602082840312156107cb576107ca610d31565b5b600082013567ffffffffffffffff8111156107e9576107e8610d2c565b5b6107f584828501610745565b91505092915050565b60006020828403121561081457610813610d31565b5b600061082284828501610773565b91505092915050565b61083481610b36565b82525050565b600061084582610a85565b61084f8185610a90565b935061085f818560208601610b9f565b61086881610d36565b840191505092915050565b600061087e82610a85565b6108888185610aa1565b9350610898818560208601610b9f565b80840191505092915050565b60006108b1602683610a90565b91506108bc82610d47565b604082019050919050565b60006108d4602083610a90565b91506108df82610d96565b602082019050919050565b6108f381610b48565b82525050565b61090281610b76565b82525050565b61091181610b80565b82525050565b60006109238284610873565b915081905092915050565b6000602082019050610943600083018461082b565b92915050565b600060c0820190508181036000830152610963818961083a565b905061097260208301886108f9565b61097f6040830187610908565b61098c6060830186610908565b61099960808301856108ea565b6109a660a08301846108ea565b979650505050505050565b600060208201905081810360008301526109ca816108a4565b9050919050565b600060208201905081810360008301526109ea816108c7565b9050919050565b6000606082019050610a0660008301866108f9565b8181036020830152610a18818561083a565b9050610a2760408301846108f9565b949350505050565b6000610a39610a4a565b9050610a458282610c04565b919050565b6000604051905090565b600067ffffffffffffffff821115610a6f57610a6e610cf3565b5b610a7882610d36565b9050602081019050919050565b600081519050919050565b600082825260208201905092915050565b600081905092915050565b6000610ab782610b76565b9150610ac283610b76565b9250827fffffffffffffffffffffffffffffffffffffffffffffffffffffffffffffffff03821115610af757610af6610c66565b5b828201905092915050565b6000610b0d82610b76565b9150610b1883610b76565b925082821015610b2b57610b2a610c66565b5b828203905092915050565b6000610b4182610b56565b9050919050565b600061ffff82169050919050565b600073ffffffffffffffffffffffffffffffffffffffff82169050919050565b6000819050919050565b600063ffffffff82169050919050565b82818337600083830152505050565b60005b83811015610bbd578082015181840152602081019050610ba2565b83811115610bcc576000848401525b50505050565b60006002820490506001821680610bea57607f821691505b60208210811415610bfe57610bfd610cc4565b5b50919050565b610c0d82610d36565b810181811067ffffffffffffffff82111715610c2c57610c2b610cf3565b5b80604052505050565b6000610c4082610b76565b9150610c4b83610b76565b925082610c5b57610c5a610c95565b5b828206905092915050565b7f4e487b7100000000000000000000000000000000000000000000000000000000600052601160045260246000fd5b7f4e487b7100000000000000000000000000000000000000000000000000000000600052601260045260246000fd5b7f4e487b7100000000000000000000000000000000000000000000000000000000600052602260045260246000fd5b7f4e487b7100000000000000000000000000000000000000000000000000000000600052604160045260246000fd5b600080fd5b600080fd5b600080fd5b600080fd5b6000601f19601f8301169050919050565b7f4f776e61626c653a206e6577206f776e657220697320746865207a65726f206160008201527f6464726573730000000000000000000000000000000000000000000000000000602082015250565b7f4f776e61626c653a2063616c6c6572206973206e6f7420746865206f776e6572600082015250565b610dc881610b36565b8114610dd357600080fd5b50565b610ddf81610b76565b8114610dea57600080fd5b5056fea2646970667358221220105cea8c1d558f0b92dcb017f1df077abf78e9fe72617fd734a25bd7360a6ceb64736f6c63430008070033",
  "immutableReferences": {},
  "source": "// contracts/GLDToken.sol\r\n// SPDX-License-Identifier: MIT\r\npragma solidity ^0.8.0;\r\n\r\nimport '@openzeppelin/contracts/access/Ownable.sol';\r\nimport '@openzeppelin/contracts/utils/math/SafeMath.sol';\r\n\r\ncontract ZombieFactory is Ownable {\r\n  using SafeMath for uint256;\r\n  // using SafeMath32 for uint32;\r\n  // using SafeMath16 for uint16;\r\n\r\n  event NewZombie(uint256 zombieId, string name, uint256 dna);\r\n\r\n  uint256 dnaDigits = 16;\r\n  uint256 dnaModulus = 10**dnaDigits;\r\n  uint256 cooldownTime = 1 days;\r\n\r\n  struct Zombie {\r\n    string name;\r\n    uint256 dna;\r\n    uint32 level;\r\n    uint32 readyTime;\r\n    uint16 winCount;\r\n    uint16 lossCount;\r\n  }\r\n\r\n  Zombie[] public zombies;\r\n\r\n  mapping(uint256 => address) public zombieToOwner;\r\n  mapping(address => uint256) ownerZombieCount;\r\n\r\n  function _createZombie(string memory _name, uint256 _dna) internal {\r\n    // uint256 id = zombies.push(\r\n    //   Zombie(_name, _dna, 1, uint32(block.timestamp + cooldownTime), 0, 0)\r\n    // ) - 1;\r\n    uint256 id = 1;\r\n    zombieToOwner[id] = msg.sender;\r\n    ownerZombieCount[msg.sender] = ownerZombieCount[msg.sender].add(1);\r\n    emit NewZombie(id, _name, _dna);\r\n  }\r\n\r\n  function _generateRandomDna(string memory _str)\r\n    private\r\n    view\r\n    returns (uint256)\r\n  {\r\n    uint256 rand = uint256(keccak256(abi.encodePacked(_str)));\r\n    return rand % dnaModulus;\r\n  }\r\n\r\n  function createRandomZombie(string memory _name) public {\r\n    require(ownerZombieCount[msg.sender] == 0);\r\n    uint256 randDna = _generateRandomDna(_name);\r\n    randDna = randDna - (randDna % 100);\r\n    _createZombie(_name, randDna);\r\n  }\r\n}\r\n",
  "sourcePath": "C:\\Users\\Obaid\\Advanced CryptoZombies\\testing-smart-contracts-with-truffle\\contracts\\CryptoZombies.sol",
  "compiler": {
    "name": "solc",
    "version": "0.8.7+commit.e28d00a7.Emscripten.clang"
  },
  "schemaVersion": "3.4.2",
  "updatedAt": "2021-09-18T14:44:16.167Z",
  "devdoc": {
    "kind": "dev",
    "methods": {
      "owner()": {
        "details": "Returns the address of the current owner."
      },
      "renounceOwnership()": {
        "details": "Leaves the contract without owner. It will not be possible to call `onlyOwner` functions anymore. Can only be called by the current owner. NOTE: Renouncing ownership will leave the contract without an owner, thereby removing any functionality that is only available to the owner."
      },
      "transferOwnership(address)": {
        "details": "Transfers ownership of the contract to a new account (`newOwner`). Can only be called by the current owner."
      }
    },
    "version": 1
  },
  "userdoc": {
    "kind": "user",
    "methods": {},
    "version": 1
  }
}